{
  "contractName": "Dice",
  "abi": [
    {
      "inputs": [],
      "name": "lastPlayed_",
      "outputs": [
        {
          "internalType": "address",
          "name": "",
          "type": "address"
        }
      ],
      "stateMutability": "view",
      "type": "function",
      "constant": true
    },
    {
      "inputs": [],
      "name": "player1_",
      "outputs": [
        {
          "internalType": "address",
          "name": "",
          "type": "address"
        }
      ],
      "stateMutability": "view",
      "type": "function",
      "constant": true
    },
    {
      "inputs": [],
      "name": "player2_",
      "outputs": [
        {
          "internalType": "address",
          "name": "",
          "type": "address"
        }
      ],
      "stateMutability": "view",
      "type": "function",
      "constant": true
    },
    {
      "inputs": [],
      "name": "winner_",
      "outputs": [
        {
          "internalType": "address",
          "name": "",
          "type": "address"
        }
      ],
      "stateMutability": "view",
      "type": "function",
      "constant": true
    },
    {
      "inputs": [],
      "name": "init",
      "outputs": [
        {
          "internalType": "string",
          "name": "",
          "type": "string"
        }
      ],
      "stateMutability": "view",
      "type": "function",
      "constant": true
    },
    {
      "inputs": [
        {
          "internalType": "address",
          "name": "_player1",
          "type": "address"
        },
        {
          "internalType": "address",
          "name": "_player2",
          "type": "address"
        }
      ],
      "name": "startGame",
      "outputs": [
        {
          "internalType": "address[2]",
          "name": "",
          "type": "address[2]"
        }
      ],
      "stateMutability": "nonpayable",
      "type": "function"
    },
    {
      "inputs": [],
      "name": "takeTurn",
      "outputs": [
        {
          "internalType": "address",
          "name": "",
          "type": "address"
        }
      ],
      "stateMutability": "nonpayable",
      "type": "function"
    },
    {
      "inputs": [],
      "name": "getStatus",
      "outputs": [
        {
          "internalType": "uint8[2]",
          "name": "",
          "type": "uint8[2]"
        }
      ],
      "stateMutability": "view",
      "type": "function",
      "constant": true
    }
  ],
  "bytecode": "0x608060405234801561001057600080fd5b506107be806100206000396000f3fe608060405234801561001057600080fd5b50600436106100885760003560e01c8063b9bf21471161005b578063b9bf21471461016f578063cd8acf5f146101a3578063e1c7392a146101d7578063eb23b56b1461025a57610088565b80634e69d5601461008d5780636e87e39c146100d357806381f996e81461010757806384d20e1e1461013b575b600080fd5b6100956102fa565b6040518082600260200280838360005b838110156100c05780820151818401526020810190506100a5565b5050505090500191505060405180910390f35b6100db61040a565b604051808273ffffffffffffffffffffffffffffffffffffffff16815260200191505060405180910390f35b61010f6104f4565b604051808273ffffffffffffffffffffffffffffffffffffffff16815260200191505060405180910390f35b610143610518565b604051808273ffffffffffffffffffffffffffffffffffffffff16815260200191505060405180910390f35b61017761053e565b604051808273ffffffffffffffffffffffffffffffffffffffff16815260200191505060405180910390f35b6101ab610564565b604051808273ffffffffffffffffffffffffffffffffffffffff16815260200191505060405180910390f35b6101df61058a565b6040518080602001828103825283818151815260200191508051906020019080838360005b8381101561021f578082015181840152602081019050610204565b50505050905090810190601f16801561024c5780820380516001836020036101000a031916815260200191505b509250505060405180910390f35b6102bc6004803603604081101561027057600080fd5b81019080803573ffffffffffffffffffffffffffffffffffffffff169060200190929190803573ffffffffffffffffffffffffffffffffffffffff1690602001909291905050506105c7565b6040518082600260200280838360005b838110156102e75780820151818401526020810190506102cc565b5050505090500191505060405180910390f35b610302610744565b604051806040016040528060046000600160009054906101000a900473ffffffffffffffffffffffffffffffffffffffff1673ffffffffffffffffffffffffffffffffffffffff1673ffffffffffffffffffffffffffffffffffffffff16815260200190815260200160002060000160009054906101000a900460ff1660ff1660ff16815260200160046000600260009054906101000a900473ffffffffffffffffffffffffffffffffffffffff1673ffffffffffffffffffffffffffffffffffffffff1673ffffffffffffffffffffffffffffffffffffffff16815260200190815260200160002060000160009054906101000a900460ff1660ff1660ff16815250905090565b600061041461070a565b600460003373ffffffffffffffffffffffffffffffffffffffff1673ffffffffffffffffffffffffffffffffffffffff16815260200190815260200160002060000160008282829054906101000a900460ff160192506101000a81548160ff021916908360ff1602179055506001600460003373ffffffffffffffffffffffffffffffffffffffff1673ffffffffffffffffffffffffffffffffffffffff16815260200190815260200160002060000160018282829054906101000a900460ff160192506101000a81548160ff021916908360ff16021790555033905090565b60008054906101000a900473ffffffffffffffffffffffffffffffffffffffff1681565b600160009054906101000a900473ffffffffffffffffffffffffffffffffffffffff1681565b600360009054906101000a900473ffffffffffffffffffffffffffffffffffffffff1681565b600260009054906101000a900473ffffffffffffffffffffffffffffffffffffffff1681565b60606040518060400160405280600c81526020017f4920616d20776f726b696e670000000000000000000000000000000000000000815250905090565b6105cf610766565b82600160006101000a81548173ffffffffffffffffffffffffffffffffffffffff021916908373ffffffffffffffffffffffffffffffffffffffff16021790555081600260006101000a81548173ffffffffffffffffffffffffffffffffffffffff021916908373ffffffffffffffffffffffffffffffffffffffff1602179055506040518060400160405280600160009054906101000a900473ffffffffffffffffffffffffffffffffffffffff1673ffffffffffffffffffffffffffffffffffffffff1673ffffffffffffffffffffffffffffffffffffffff168152602001600260009054906101000a900473ffffffffffffffffffffffffffffffffffffffff1673ffffffffffffffffffffffffffffffffffffffff1673ffffffffffffffffffffffffffffffffffffffff16815250905092915050565b6000804260014303014060001c9050600360149054906101000a900460ff1660ff168101905060016005828161073c57fe5b060191505090565b6040518060400160405280600290602082028036833780820191505090505090565b604051806040016040528060029060208202803683378082019150509050509056fea2646970667358221220e144e8051d885e24a09aa658b24c43bad3b6b49de5998bc26cdf3cfb84c1dba464736f6c63430007010033",
  "immutableReferences": {},
  "source": "pragma solidity ^0.7.1;\n\n\n// <!-- REQUIREMENTS -->\n\n// <!-- 1) 2 players play the game -->\n// <!-- 2) Fixed bet size from each size-->\n// <!-- 3) Roll 5 times, if odd, then player 1 wins winnings, if even player 2 wins -->\n// <!-- 3) 1% fee to house -->\n\n\ncontract Dice {\n\n\tstruct Bet{\n//\t\tuint8  currentBet;\n//\t\tbool  isBetSet; //default value is false\n\t\tuint8  score;\n    uint8  turns;\n\t}\n\n  address public lastPlayed_;\n  address public player1_;\n  address public player2_;\n  address public winner_;\n  uint8 private randomFactor;\n\n\tmapping(address => Bet) private bets;\n\n  // check initial\n\n  function init() external view returns (string memory) {\n    return \"I am working\";\n  }\n\n  // start the game with 2 players\n\n  function startGame(address _player1, address _player2) external returns (address[2] memory) {\n    player1_ = _player1;\n    player2_ = _player2;\n    return [player1_, player2_];\n  }\n\n  // dice roll generator\n\n  function random() private view returns (uint8) {\n    uint256 blockValue = uint256(blockhash(block.number-1 + block.timestamp));\n    blockValue = blockValue + uint256(randomFactor);\n    return uint8(blockValue % 5) + 1;\n  }\n\n  // take turns to roll the dice and increment the score\n\n  function takeTurn() external returns (address){\n    bets[msg.sender].score += random();\n    bets[msg.sender].turns += 1;\n    return msg.sender;\n  }\n\n  // return gameStatus of each player\n\n  function getStatus() external view returns (uint8[2] memory) {\n    return [bets[player1_].score, bets[player2_].score];\n  }\n\n  // if both players are at 5 turns, then find winner\n\n}\n",
  "sourcePath": "/Users/belindachow/Development/dice-game-v2/contracts/dice.sol",
  "compiler": {
    "name": "solc",
    "version": "0.7.1+commit.f4a555be.Emscripten.clang"
  },
  "schemaVersion": "3.2.5",
  "updatedAt": "2020-09-14T00:26:46.926Z",
  "networkType": "ethereum",
  "devdoc": {
    "kind": "dev",
    "methods": {},
    "version": 1
  },
  "userdoc": {
    "kind": "user",
    "methods": {},
    "version": 1
  }
}